{
  "_format": "hh-sol-artifact-1",
  "contractName": "Salamun",
  "sourceName": "contracts/Salamun.sol",
  "abi": [
    {
      "inputs": [],
      "stateMutability": "nonpayable",
      "type": "constructor"
    },
    {
      "anonymous": false,
      "inputs": [
        {
          "indexed": true,
          "internalType": "address",
          "name": "owner",
          "type": "address"
        },
        {
          "indexed": true,
          "internalType": "address",
          "name": "approved",
          "type": "address"
        },
        {
          "indexed": true,
          "internalType": "uint256",
          "name": "tokenId",
          "type": "uint256"
        }
      ],
      "name": "Approval",
      "type": "event"
    },
    {
      "anonymous": false,
      "inputs": [
        {
          "indexed": true,
          "internalType": "address",
          "name": "owner",
          "type": "address"
        },
        {
          "indexed": true,
          "internalType": "address",
          "name": "operator",
          "type": "address"
        },
        {
          "indexed": false,
          "internalType": "bool",
          "name": "approved",
          "type": "bool"
        }
      ],
      "name": "ApprovalForAll",
      "type": "event"
    },
    {
      "anonymous": false,
      "inputs": [
        {
          "indexed": true,
          "internalType": "address",
          "name": "previousOwner",
          "type": "address"
        },
        {
          "indexed": true,
          "internalType": "address",
          "name": "newOwner",
          "type": "address"
        }
      ],
      "name": "OwnershipTransferred",
      "type": "event"
    },
    {
      "anonymous": false,
      "inputs": [
        {
          "indexed": true,
          "internalType": "address",
          "name": "from",
          "type": "address"
        },
        {
          "indexed": true,
          "internalType": "address",
          "name": "to",
          "type": "address"
        },
        {
          "indexed": true,
          "internalType": "uint256",
          "name": "tokenId",
          "type": "uint256"
        }
      ],
      "name": "Transfer",
      "type": "event"
    },
    {
      "inputs": [],
      "name": "MAX_SUPPLY",
      "outputs": [
        {
          "internalType": "uint256",
          "name": "",
          "type": "uint256"
        }
      ],
      "stateMutability": "view",
      "type": "function"
    },
    {
      "inputs": [
        {
          "internalType": "address",
          "name": "to",
          "type": "address"
        },
        {
          "internalType": "uint256",
          "name": "tokenId",
          "type": "uint256"
        }
      ],
      "name": "approve",
      "outputs": [],
      "stateMutability": "nonpayable",
      "type": "function"
    },
    {
      "inputs": [
        {
          "internalType": "address",
          "name": "owner",
          "type": "address"
        }
      ],
      "name": "balanceOf",
      "outputs": [
        {
          "internalType": "uint256",
          "name": "",
          "type": "uint256"
        }
      ],
      "stateMutability": "view",
      "type": "function"
    },
    {
      "inputs": [
        {
          "internalType": "uint256",
          "name": "tokenId",
          "type": "uint256"
        }
      ],
      "name": "getApproved",
      "outputs": [
        {
          "internalType": "address",
          "name": "",
          "type": "address"
        }
      ],
      "stateMutability": "view",
      "type": "function"
    },
    {
      "inputs": [
        {
          "internalType": "address",
          "name": "owner",
          "type": "address"
        },
        {
          "internalType": "address",
          "name": "operator",
          "type": "address"
        }
      ],
      "name": "isApprovedForAll",
      "outputs": [
        {
          "internalType": "bool",
          "name": "",
          "type": "bool"
        }
      ],
      "stateMutability": "view",
      "type": "function"
    },
    {
      "inputs": [],
      "name": "merkleRoot",
      "outputs": [
        {
          "internalType": "bytes32",
          "name": "",
          "type": "bytes32"
        }
      ],
      "stateMutability": "view",
      "type": "function"
    },
    {
      "inputs": [
        {
          "internalType": "uint256",
          "name": "quantity_",
          "type": "uint256"
        }
      ],
      "name": "mint",
      "outputs": [],
      "stateMutability": "payable",
      "type": "function"
    },
    {
      "inputs": [
        {
          "internalType": "uint256",
          "name": "quantity_",
          "type": "uint256"
        },
        {
          "internalType": "bytes32[]",
          "name": "proof_",
          "type": "bytes32[]"
        }
      ],
      "name": "mintWhitelist",
      "outputs": [],
      "stateMutability": "payable",
      "type": "function"
    },
    {
      "inputs": [],
      "name": "name",
      "outputs": [
        {
          "internalType": "string",
          "name": "",
          "type": "string"
        }
      ],
      "stateMutability": "view",
      "type": "function"
    },
    {
      "inputs": [],
      "name": "owner",
      "outputs": [
        {
          "internalType": "address",
          "name": "",
          "type": "address"
        }
      ],
      "stateMutability": "view",
      "type": "function"
    },
    {
      "inputs": [
        {
          "internalType": "uint256",
          "name": "tokenId",
          "type": "uint256"
        }
      ],
      "name": "ownerOf",
      "outputs": [
        {
          "internalType": "address",
          "name": "",
          "type": "address"
        }
      ],
      "stateMutability": "view",
      "type": "function"
    },
    {
      "inputs": [],
      "name": "renounceOwnership",
      "outputs": [],
      "stateMutability": "nonpayable",
      "type": "function"
    },
    {
      "inputs": [
        {
          "internalType": "address",
          "name": "from",
          "type": "address"
        },
        {
          "internalType": "address",
          "name": "to",
          "type": "address"
        },
        {
          "internalType": "uint256",
          "name": "tokenId",
          "type": "uint256"
        }
      ],
      "name": "safeTransferFrom",
      "outputs": [],
      "stateMutability": "nonpayable",
      "type": "function"
    },
    {
      "inputs": [
        {
          "internalType": "address",
          "name": "from",
          "type": "address"
        },
        {
          "internalType": "address",
          "name": "to",
          "type": "address"
        },
        {
          "internalType": "uint256",
          "name": "tokenId",
          "type": "uint256"
        },
        {
          "internalType": "bytes",
          "name": "_data",
          "type": "bytes"
        }
      ],
      "name": "safeTransferFrom",
      "outputs": [],
      "stateMutability": "nonpayable",
      "type": "function"
    },
    {
      "inputs": [
        {
          "internalType": "address",
          "name": "operator",
          "type": "address"
        },
        {
          "internalType": "bool",
          "name": "approved",
          "type": "bool"
        }
      ],
      "name": "setApprovalForAll",
      "outputs": [],
      "stateMutability": "nonpayable",
      "type": "function"
    },
    {
      "inputs": [
        {
          "internalType": "string",
          "name": "baseURI_",
          "type": "string"
        }
      ],
      "name": "setBaseURI",
      "outputs": [],
      "stateMutability": "nonpayable",
      "type": "function"
    },
    {
      "inputs": [
        {
          "internalType": "bytes32",
          "name": "merkleRoot_",
          "type": "bytes32"
        }
      ],
      "name": "setMerkleRoot",
      "outputs": [],
      "stateMutability": "nonpayable",
      "type": "function"
    },
    {
      "inputs": [
        {
          "internalType": "bytes4",
          "name": "interfaceId",
          "type": "bytes4"
        }
      ],
      "name": "supportsInterface",
      "outputs": [
        {
          "internalType": "bool",
          "name": "",
          "type": "bool"
        }
      ],
      "stateMutability": "view",
      "type": "function"
    },
    {
      "inputs": [],
      "name": "symbol",
      "outputs": [
        {
          "internalType": "string",
          "name": "",
          "type": "string"
        }
      ],
      "stateMutability": "view",
      "type": "function"
    },
    {
      "inputs": [
        {
          "internalType": "uint256",
          "name": "index",
          "type": "uint256"
        }
      ],
      "name": "tokenByIndex",
      "outputs": [
        {
          "internalType": "uint256",
          "name": "",
          "type": "uint256"
        }
      ],
      "stateMutability": "view",
      "type": "function"
    },
    {
      "inputs": [
        {
          "internalType": "address",
          "name": "owner",
          "type": "address"
        },
        {
          "internalType": "uint256",
          "name": "index",
          "type": "uint256"
        }
      ],
      "name": "tokenOfOwnerByIndex",
      "outputs": [
        {
          "internalType": "uint256",
          "name": "",
          "type": "uint256"
        }
      ],
      "stateMutability": "view",
      "type": "function"
    },
    {
      "inputs": [
        {
          "internalType": "uint256",
          "name": "tokenId",
          "type": "uint256"
        }
      ],
      "name": "tokenURI",
      "outputs": [
        {
          "internalType": "string",
          "name": "",
          "type": "string"
        }
      ],
      "stateMutability": "view",
      "type": "function"
    },
    {
      "inputs": [],
      "name": "totalSupply",
      "outputs": [
        {
          "internalType": "uint256",
          "name": "",
          "type": "uint256"
        }
      ],
      "stateMutability": "view",
      "type": "function"
    },
    {
      "inputs": [
        {
          "internalType": "address",
          "name": "from",
          "type": "address"
        },
        {
          "internalType": "address",
          "name": "to",
          "type": "address"
        },
        {
          "internalType": "uint256",
          "name": "tokenId",
          "type": "uint256"
        }
      ],
      "name": "transferFrom",
      "outputs": [],
      "stateMutability": "nonpayable",
      "type": "function"
    },
    {
      "inputs": [
        {
          "internalType": "address",
          "name": "newOwner",
          "type": "address"
        }
      ],
      "name": "transferOwnership",
      "outputs": [],
      "stateMutability": "nonpayable",
      "type": "function"
    }
  ],
  "bytecode": "0x60806040523480156200001157600080fd5b506040518060400160405280600781526020017f53616c616d756e000000000000000000000000000000000000000000000000008152506040518060400160405280600381526020017f53414c0000000000000000000000000000000000000000000000000000000000815250816000908051906020019062000096929190620001a6565b508060019080519060200190620000af929190620001a6565b505050620000d2620000c6620000d860201b60201c565b620000e060201b60201c565b620002bb565b600033905090565b6000600a60009054906101000a900473ffffffffffffffffffffffffffffffffffffffff16905081600a60006101000a81548173ffffffffffffffffffffffffffffffffffffffff021916908373ffffffffffffffffffffffffffffffffffffffff1602179055508173ffffffffffffffffffffffffffffffffffffffff168173ffffffffffffffffffffffffffffffffffffffff167f8be0079c531659141344cd1fd0a4f28419497f9722a3daafe3b4186f6b6457e060405160405180910390a35050565b828054620001b49062000256565b90600052602060002090601f016020900481019282620001d8576000855562000224565b82601f10620001f357805160ff191683800117855562000224565b8280016001018555821562000224579182015b828111156200022357825182559160200191906001019062000206565b5b50905062000233919062000237565b5090565b5b808211156200025257600081600090555060010162000238565b5090565b600060028204905060018216806200026f57607f821691505b602082108114156200028657620002856200028c565b5b50919050565b7f4e487b7100000000000000000000000000000000000000000000000000000000600052602260045260246000fd5b613d1980620002cb6000396000f3fe6080604052600436106101665760003560e01c806355f804b3116100d157806395d89b411161008a578063b88d4fde11610064578063b88d4fde14610520578063c87b56dd14610549578063e985e9c514610586578063f2fde38b146105c357610166565b806395d89b41146104b0578063a0712d68146104db578063a22cb465146104f757610166565b806355f804b3146103a25780636352211e146103cb57806370a0823114610408578063715018a6146104455780637cb647591461045c5780638da5cb5b1461048557610166565b806323b872dd1161012357806323b872dd146102805780632eb4a7ab146102a95780632f745c59146102d457806332cb6b0c1461031157806342842e0e1461033c5780634f6ccce71461036557610166565b806301ffc9a71461016b578063061431a8146101a857806306fdde03146101c4578063081812fc146101ef578063095ea7b31461022c57806318160ddd14610255575b600080fd5b34801561017757600080fd5b50610192600480360381019061018d9190612aae565b6105ec565b60405161019f919061301a565b60405180910390f35b6101c260048036038101906101bd9190612b6e565b610666565b005b3480156101d057600080fd5b506101d9610771565b6040516101e69190613050565b60405180910390f35b3480156101fb57600080fd5b5061021660048036038101906102119190612b45565b610803565b6040516102239190612fb3565b60405180910390f35b34801561023857600080fd5b50610253600480360381019061024e9190612a49565b610888565b005b34801561026157600080fd5b5061026a6109a0565b60405161027791906132f2565b60405180910390f35b34801561028c57600080fd5b506102a760048036038101906102a29190612943565b6109ad565b005b3480156102b557600080fd5b506102be610a0d565b6040516102cb9190613035565b60405180910390f35b3480156102e057600080fd5b506102fb60048036038101906102f69190612a49565b610a13565b60405161030891906132f2565b60405180910390f35b34801561031d57600080fd5b50610326610ab8565b60405161033391906132f2565b60405180910390f35b34801561034857600080fd5b50610363600480360381019061035e9190612943565b610abd565b005b34801561037157600080fd5b5061038c60048036038101906103879190612b45565b610add565b60405161039991906132f2565b60405180910390f35b3480156103ae57600080fd5b506103c960048036038101906103c49190612b00565b610b74565b005b3480156103d757600080fd5b506103f260048036038101906103ed9190612b45565b610c06565b6040516103ff9190612fb3565b60405180910390f35b34801561041457600080fd5b5061042f600480360381019061042a91906128de565b610cb8565b60405161043c91906132f2565b60405180910390f35b34801561045157600080fd5b5061045a610d70565b005b34801561046857600080fd5b50610483600480360381019061047e9190612a85565b610df8565b005b34801561049157600080fd5b5061049a610e7e565b6040516104a79190612fb3565b60405180910390f35b3480156104bc57600080fd5b506104c5610ea8565b6040516104d29190613050565b60405180910390f35b6104f560048036038101906104f09190612b45565b610f3a565b005b34801561050357600080fd5b5061051e60048036038101906105199190612a0d565b610fd2565b005b34801561052c57600080fd5b5061054760048036038101906105429190612992565b610fe8565b005b34801561055557600080fd5b50610570600480360381019061056b9190612b45565b61104a565b60405161057d9190613050565b60405180910390f35b34801561059257600080fd5b506105ad60048036038101906105a89190612907565b6110f1565b6040516105ba919061301a565b60405180910390f35b3480156105cf57600080fd5b506105ea60048036038101906105e591906128de565b611185565b005b60007f780e9d63000000000000000000000000000000000000000000000000000000007bffffffffffffffffffffffffffffffffffffffffffffffffffffffff1916827bffffffffffffffffffffffffffffffffffffffffffffffffffffffff1916148061065f575061065e8261127d565b5b9050919050565b61069981600c543360405160200161067e9190612f74565b6040516020818303038152906040528051906020012061135f565b6106d8576040517f08c379a00000000000000000000000000000000000000000000000000000000081526004016106cf90613112565b60405180910390fd5b6014826106e36109a0565b6106ed91906133d2565b111561072e576040517f08c379a000000000000000000000000000000000000000000000000000000000815260040161072590613272565b60405180910390fd5b6000600190505b82811161076c5761075933600161074a6109a0565b61075491906133d2565b611376565b8080610764906135b0565b915050610735565b505050565b6060600080546107809061354d565b80601f01602080910402602001604051908101604052809291908181526020018280546107ac9061354d565b80156107f95780601f106107ce576101008083540402835291602001916107f9565b820191906000526020600020905b8154815290600101906020018083116107dc57829003601f168201915b5050505050905090565b600061080e82611394565b61084d576040517f08c379a000000000000000000000000000000000000000000000000000000000815260040161084490613212565b60405180910390fd5b6004600083815260200190815260200160002060009054906101000a900473ffffffffffffffffffffffffffffffffffffffff169050919050565b600061089382610c06565b90508073ffffffffffffffffffffffffffffffffffffffff168373ffffffffffffffffffffffffffffffffffffffff161415610904576040517f08c379a00000000000000000000000000000000000000000000000000000000081526004016108fb90613292565b60405180910390fd5b8073ffffffffffffffffffffffffffffffffffffffff16610923611400565b73ffffffffffffffffffffffffffffffffffffffff16148061095257506109518161094c611400565b6110f1565b5b610991576040517f08c379a000000000000000000000000000000000000000000000000000000000815260040161098890613192565b60405180910390fd5b61099b8383611408565b505050565b6000600880549050905090565b6109be6109b8611400565b826114c1565b6109fd576040517f08c379a00000000000000000000000000000000000000000000000000000000081526004016109f4906132b2565b60405180910390fd5b610a0883838361159f565b505050565b600c5481565b6000610a1e83610cb8565b8210610a5f576040517f08c379a0000000000000000000000000000000000000000000000000000000008152600401610a5690613072565b60405180910390fd5b600660008473ffffffffffffffffffffffffffffffffffffffff1673ffffffffffffffffffffffffffffffffffffffff168152602001908152602001600020600083815260200190815260200160002054905092915050565b601481565b610ad883838360405180602001604052806000815250610fe8565b505050565b6000610ae76109a0565b8210610b28576040517f08c379a0000000000000000000000000000000000000000000000000000000008152600401610b1f906132d2565b60405180910390fd5b60088281548110610b62577f4e487b7100000000000000000000000000000000000000000000000000000000600052603260045260246000fd5b90600052602060002001549050919050565b610b7c611400565b73ffffffffffffffffffffffffffffffffffffffff16610b9a610e7e565b73ffffffffffffffffffffffffffffffffffffffff1614610bf0576040517f08c379a0000000000000000000000000000000000000000000000000000000008152600401610be790613232565b60405180910390fd5b8181600b9190610c01929190612675565b505050565b6000806002600084815260200190815260200160002060009054906101000a900473ffffffffffffffffffffffffffffffffffffffff169050600073ffffffffffffffffffffffffffffffffffffffff168173ffffffffffffffffffffffffffffffffffffffff161415610caf576040517f08c379a0000000000000000000000000000000000000000000000000000000008152600401610ca6906131d2565b60405180910390fd5b80915050919050565b60008073ffffffffffffffffffffffffffffffffffffffff168273ffffffffffffffffffffffffffffffffffffffff161415610d29576040517f08c379a0000000000000000000000000000000000000000000000000000000008152600401610d20906131b2565b60405180910390fd5b600360008373ffffffffffffffffffffffffffffffffffffffff1673ffffffffffffffffffffffffffffffffffffffff168152602001908152602001600020549050919050565b610d78611400565b73ffffffffffffffffffffffffffffffffffffffff16610d96610e7e565b73ffffffffffffffffffffffffffffffffffffffff1614610dec576040517f08c379a0000000000000000000000000000000000000000000000000000000008152600401610de390613232565b60405180910390fd5b610df66000611806565b565b610e00611400565b73ffffffffffffffffffffffffffffffffffffffff16610e1e610e7e565b73ffffffffffffffffffffffffffffffffffffffff1614610e74576040517f08c379a0000000000000000000000000000000000000000000000000000000008152600401610e6b90613232565b60405180910390fd5b80600c8190555050565b6000600a60009054906101000a900473ffffffffffffffffffffffffffffffffffffffff16905090565b606060018054610eb79061354d565b80601f0160208091040260200160405190810160405280929190818152602001828054610ee39061354d565b8015610f305780601f10610f0557610100808354040283529160200191610f30565b820191906000526020600020905b815481529060010190602001808311610f1357829003601f168201915b5050505050905090565b601481610f456109a0565b610f4f91906133d2565b1115610f90576040517f08c379a0000000000000000000000000000000000000000000000000000000008152600401610f8790613272565b60405180910390fd5b6000600190505b818111610fce57610fbb336001610fac6109a0565b610fb691906133d2565b611376565b8080610fc6906135b0565b915050610f97565b5050565b610fe4610fdd611400565b83836118cc565b5050565b610ff9610ff3611400565b836114c1565b611038576040517f08c379a000000000000000000000000000000000000000000000000000000000815260040161102f906132b2565b60405180910390fd5b61104484848484611a39565b50505050565b606061105582611394565b611094576040517f08c379a000000000000000000000000000000000000000000000000000000000815260040161108b90613252565b60405180910390fd5b600061109e611a95565b905060008151116110be57604051806020016040528060008152506110e9565b806110c884611b27565b6040516020016110d9929190612f8f565b6040516020818303038152906040525b915050919050565b6000600560008473ffffffffffffffffffffffffffffffffffffffff1673ffffffffffffffffffffffffffffffffffffffff16815260200190815260200160002060008373ffffffffffffffffffffffffffffffffffffffff1673ffffffffffffffffffffffffffffffffffffffff16815260200190815260200160002060009054906101000a900460ff16905092915050565b61118d611400565b73ffffffffffffffffffffffffffffffffffffffff166111ab610e7e565b73ffffffffffffffffffffffffffffffffffffffff1614611201576040517f08c379a00000000000000000000000000000000000000000000000000000000081526004016111f890613232565b60405180910390fd5b600073ffffffffffffffffffffffffffffffffffffffff168173ffffffffffffffffffffffffffffffffffffffff161415611271576040517f08c379a0000000000000000000000000000000000000000000000000000000008152600401611268906130b2565b60405180910390fd5b61127a81611806565b50565b60007f80ac58cd000000000000000000000000000000000000000000000000000000007bffffffffffffffffffffffffffffffffffffffffffffffffffffffff1916827bffffffffffffffffffffffffffffffffffffffffffffffffffffffff1916148061134857507f5b5e139f000000000000000000000000000000000000000000000000000000007bffffffffffffffffffffffffffffffffffffffffffffffffffffffff1916827bffffffffffffffffffffffffffffffffffffffffffffffffffffffff1916145b80611358575061135782611cd4565b5b9050919050565b60008261136c8584611d3e565b1490509392505050565b611390828260405180602001604052806000815250611dd9565b5050565b60008073ffffffffffffffffffffffffffffffffffffffff166002600084815260200190815260200160002060009054906101000a900473ffffffffffffffffffffffffffffffffffffffff1673ffffffffffffffffffffffffffffffffffffffff1614159050919050565b600033905090565b816004600083815260200190815260200160002060006101000a81548173ffffffffffffffffffffffffffffffffffffffff021916908373ffffffffffffffffffffffffffffffffffffffff160217905550808273ffffffffffffffffffffffffffffffffffffffff1661147b83610c06565b73ffffffffffffffffffffffffffffffffffffffff167f8c5be1e5ebec7d5bd14f71427d1e84f3dd0314c0f7b2291e5b200ac8c7c3b92560405160405180910390a45050565b60006114cc82611394565b61150b576040517f08c379a000000000000000000000000000000000000000000000000000000000815260040161150290613172565b60405180910390fd5b600061151683610c06565b90508073ffffffffffffffffffffffffffffffffffffffff168473ffffffffffffffffffffffffffffffffffffffff161480611558575061155781856110f1565b5b8061159657508373ffffffffffffffffffffffffffffffffffffffff1661157e84610803565b73ffffffffffffffffffffffffffffffffffffffff16145b91505092915050565b8273ffffffffffffffffffffffffffffffffffffffff166115bf82610c06565b73ffffffffffffffffffffffffffffffffffffffff1614611615576040517f08c379a000000000000000000000000000000000000000000000000000000000815260040161160c906130d2565b60405180910390fd5b600073ffffffffffffffffffffffffffffffffffffffff168273ffffffffffffffffffffffffffffffffffffffff161415611685576040517f08c379a000000000000000000000000000000000000000000000000000000000815260040161167c90613132565b60405180910390fd5b611690838383611e34565b61169b600082611408565b6001600360008573ffffffffffffffffffffffffffffffffffffffff1673ffffffffffffffffffffffffffffffffffffffff16815260200190815260200160002060008282546116eb9190613459565b925050819055506001600360008473ffffffffffffffffffffffffffffffffffffffff1673ffffffffffffffffffffffffffffffffffffffff168152602001908152602001600020600082825461174291906133d2565b92505081905550816002600083815260200190815260200160002060006101000a81548173ffffffffffffffffffffffffffffffffffffffff021916908373ffffffffffffffffffffffffffffffffffffffff160217905550808273ffffffffffffffffffffffffffffffffffffffff168473ffffffffffffffffffffffffffffffffffffffff167fddf252ad1be2c89b69c2b068fc378daa952ba7f163c4a11628f55a4df523b3ef60405160405180910390a4611801838383611f48565b505050565b6000600a60009054906101000a900473ffffffffffffffffffffffffffffffffffffffff16905081600a60006101000a81548173ffffffffffffffffffffffffffffffffffffffff021916908373ffffffffffffffffffffffffffffffffffffffff1602179055508173ffffffffffffffffffffffffffffffffffffffff168173ffffffffffffffffffffffffffffffffffffffff167f8be0079c531659141344cd1fd0a4f28419497f9722a3daafe3b4186f6b6457e060405160405180910390a35050565b8173ffffffffffffffffffffffffffffffffffffffff168373ffffffffffffffffffffffffffffffffffffffff16141561193b576040517f08c379a000000000000000000000000000000000000000000000000000000000815260040161193290613152565b60405180910390fd5b80600560008573ffffffffffffffffffffffffffffffffffffffff1673ffffffffffffffffffffffffffffffffffffffff16815260200190815260200160002060008473ffffffffffffffffffffffffffffffffffffffff1673ffffffffffffffffffffffffffffffffffffffff16815260200190815260200160002060006101000a81548160ff0219169083151502179055508173ffffffffffffffffffffffffffffffffffffffff168373ffffffffffffffffffffffffffffffffffffffff167f17307eab39ab6107e8899845ad3d59bd9653f200f220920489ca2b5937696c3183604051611a2c919061301a565b60405180910390a3505050565b611a4484848461159f565b611a5084848484611f4d565b611a8f576040517f08c379a0000000000000000000000000000000000000000000000000000000008152600401611a8690613092565b60405180910390fd5b50505050565b6060600b8054611aa49061354d565b80601f0160208091040260200160405190810160405280929190818152602001828054611ad09061354d565b8015611b1d5780601f10611af257610100808354040283529160200191611b1d565b820191906000526020600020905b815481529060010190602001808311611b0057829003601f168201915b5050505050905090565b60606000821415611b6f576040518060400160405280600181526020017f30000000000000000000000000000000000000000000000000000000000000008152509050611ccf565b600082905060005b60008214611ba1578080611b8a906135b0565b915050600a82611b9a9190613428565b9150611b77565b60008167ffffffffffffffff811115611be3577f4e487b7100000000000000000000000000000000000000000000000000000000600052604160045260246000fd5b6040519080825280601f01601f191660200182016040528015611c155781602001600182028036833780820191505090505b5090505b60008514611cc857600182611c2e9190613459565b9150600a85611c3d919061361d565b6030611c4991906133d2565b60f81b818381518110611c85577f4e487b7100000000000000000000000000000000000000000000000000000000600052603260045260246000fd5b60200101907effffffffffffffffffffffffffffffffffffffffffffffffffffffffffffff1916908160001a905350600a85611cc19190613428565b9450611c19565b8093505050505b919050565b60007f01ffc9a7000000000000000000000000000000000000000000000000000000007bffffffffffffffffffffffffffffffffffffffffffffffffffffffff1916827bffffffffffffffffffffffffffffffffffffffffffffffffffffffff1916149050919050565b60008082905060005b8451811015611dce576000858281518110611d8b577f4e487b7100000000000000000000000000000000000000000000000000000000600052603260045260246000fd5b60200260200101519050808311611dad57611da683826120e4565b9250611dba565b611db781846120e4565b92505b508080611dc6906135b0565b915050611d47565b508091505092915050565b611de383836120fb565b611df06000848484611f4d565b611e2f576040517f08c379a0000000000000000000000000000000000000000000000000000000008152600401611e2690613092565b60405180910390fd5b505050565b611e3f8383836122d5565b600073ffffffffffffffffffffffffffffffffffffffff168373ffffffffffffffffffffffffffffffffffffffff161415611e8257611e7d816122da565b611ec1565b8173ffffffffffffffffffffffffffffffffffffffff168373ffffffffffffffffffffffffffffffffffffffff1614611ec057611ebf8382612323565b5b5b600073ffffffffffffffffffffffffffffffffffffffff168273ffffffffffffffffffffffffffffffffffffffff161415611f0457611eff81612490565b611f43565b8273ffffffffffffffffffffffffffffffffffffffff168273ffffffffffffffffffffffffffffffffffffffff1614611f4257611f4182826125d3565b5b5b505050565b505050565b6000611f6e8473ffffffffffffffffffffffffffffffffffffffff16612652565b156120d7578373ffffffffffffffffffffffffffffffffffffffff1663150b7a02611f97611400565b8786866040518563ffffffff1660e01b8152600401611fb99493929190612fce565b602060405180830381600087803b158015611fd357600080fd5b505af192505050801561200457506040513d601f19601f820116820180604052508101906120019190612ad7565b60015b612087573d8060008114612034576040519150601f19603f3d011682016040523d82523d6000602084013e612039565b606091505b5060008151141561207f576040517f08c379a000000000000000000000000000000000000000000000000000000000815260040161207690613092565b60405180910390fd5b805181602001fd5b63150b7a0260e01b7bffffffffffffffffffffffffffffffffffffffffffffffffffffffff1916817bffffffffffffffffffffffffffffffffffffffffffffffffffffffff1916149150506120dc565b600190505b949350505050565b600082600052816020526040600020905092915050565b600073ffffffffffffffffffffffffffffffffffffffff168273ffffffffffffffffffffffffffffffffffffffff16141561216b576040517f08c379a0000000000000000000000000000000000000000000000000000000008152600401612162906131f2565b60405180910390fd5b61217481611394565b156121b4576040517f08c379a00000000000000000000000000000000000000000000000000000000081526004016121ab906130f2565b60405180910390fd5b6121c060008383611e34565b6001600360008473ffffffffffffffffffffffffffffffffffffffff1673ffffffffffffffffffffffffffffffffffffffff168152602001908152602001600020600082825461221091906133d2565b92505081905550816002600083815260200190815260200160002060006101000a81548173ffffffffffffffffffffffffffffffffffffffff021916908373ffffffffffffffffffffffffffffffffffffffff160217905550808273ffffffffffffffffffffffffffffffffffffffff16600073ffffffffffffffffffffffffffffffffffffffff167fddf252ad1be2c89b69c2b068fc378daa952ba7f163c4a11628f55a4df523b3ef60405160405180910390a46122d160008383611f48565b5050565b505050565b6008805490506009600083815260200190815260200160002081905550600881908060018154018082558091505060019003906000526020600020016000909190919091505550565b6000600161233084610cb8565b61233a9190613459565b905060006007600084815260200190815260200160002054905081811461241f576000600660008673ffffffffffffffffffffffffffffffffffffffff1673ffffffffffffffffffffffffffffffffffffffff168152602001908152602001600020600084815260200190815260200160002054905080600660008773ffffffffffffffffffffffffffffffffffffffff1673ffffffffffffffffffffffffffffffffffffffff168152602001908152602001600020600084815260200190815260200160002081905550816007600083815260200190815260200160002081905550505b6007600084815260200190815260200160002060009055600660008573ffffffffffffffffffffffffffffffffffffffff1673ffffffffffffffffffffffffffffffffffffffff16815260200190815260200160002060008381526020019081526020016000206000905550505050565b600060016008805490506124a49190613459565b90506000600960008481526020019081526020016000205490506000600883815481106124fa577f4e487b7100000000000000000000000000000000000000000000000000000000600052603260045260246000fd5b906000526020600020015490508060088381548110612542577f4e487b7100000000000000000000000000000000000000000000000000000000600052603260045260246000fd5b9060005260206000200181905550816009600083815260200190815260200160002081905550600960008581526020019081526020016000206000905560088054806125b7577f4e487b7100000000000000000000000000000000000000000000000000000000600052603160045260246000fd5b6001900381819060005260206000200160009055905550505050565b60006125de83610cb8565b905081600660008573ffffffffffffffffffffffffffffffffffffffff1673ffffffffffffffffffffffffffffffffffffffff168152602001908152602001600020600083815260200190815260200160002081905550806007600084815260200190815260200160002081905550505050565b6000808273ffffffffffffffffffffffffffffffffffffffff163b119050919050565b8280546126819061354d565b90600052602060002090601f0160209004810192826126a357600085556126ea565b82601f106126bc57803560ff19168380011785556126ea565b828001600101855582156126ea579182015b828111156126e95782358255916020019190600101906126ce565b5b5090506126f791906126fb565b5090565b5b808211156127145760008160009055506001016126fc565b5090565b600061272b61272684613332565b61330d565b9050808382526020820190508285602086028201111561274a57600080fd5b60005b8581101561277a57816127608882612816565b84526020840193506020830192505060018101905061274d565b5050509392505050565b60006127976127928461335e565b61330d565b9050828152602081018484840111156127af57600080fd5b6127ba84828561350b565b509392505050565b6000813590506127d181613c70565b92915050565b600082601f8301126127e857600080fd5b81356127f8848260208601612718565b91505092915050565b60008135905061281081613c87565b92915050565b60008135905061282581613c9e565b92915050565b60008135905061283a81613cb5565b92915050565b60008151905061284f81613cb5565b92915050565b600082601f83011261286657600080fd5b8135612876848260208601612784565b91505092915050565b60008083601f84011261289157600080fd5b8235905067ffffffffffffffff8111156128aa57600080fd5b6020830191508360018202830111156128c257600080fd5b9250929050565b6000813590506128d881613ccc565b92915050565b6000602082840312156128f057600080fd5b60006128fe848285016127c2565b91505092915050565b6000806040838503121561291a57600080fd5b6000612928858286016127c2565b9250506020612939858286016127c2565b9150509250929050565b60008060006060848603121561295857600080fd5b6000612966868287016127c2565b9350506020612977868287016127c2565b9250506040612988868287016128c9565b9150509250925092565b600080600080608085870312156129a857600080fd5b60006129b6878288016127c2565b94505060206129c7878288016127c2565b93505060406129d8878288016128c9565b925050606085013567ffffffffffffffff8111156129f557600080fd5b612a0187828801612855565b91505092959194509250565b60008060408385031215612a2057600080fd5b6000612a2e858286016127c2565b9250506020612a3f85828601612801565b9150509250929050565b60008060408385031215612a5c57600080fd5b6000612a6a858286016127c2565b9250506020612a7b858286016128c9565b9150509250929050565b600060208284031215612a9757600080fd5b6000612aa584828501612816565b91505092915050565b600060208284031215612ac057600080fd5b6000612ace8482850161282b565b91505092915050565b600060208284031215612ae957600080fd5b6000612af784828501612840565b91505092915050565b60008060208385031215612b1357600080fd5b600083013567ffffffffffffffff811115612b2d57600080fd5b612b398582860161287f565b92509250509250929050565b600060208284031215612b5757600080fd5b6000612b65848285016128c9565b91505092915050565b60008060408385031215612b8157600080fd5b6000612b8f858286016128c9565b925050602083013567ffffffffffffffff811115612bac57600080fd5b612bb8858286016127d7565b9150509250929050565b612bcb8161348d565b82525050565b612be2612bdd8261348d565b6135f9565b82525050565b612bf18161349f565b82525050565b612c00816134ab565b82525050565b6000612c118261338f565b612c1b81856133a5565b9350612c2b81856020860161351a565b612c348161370a565b840191505092915050565b6000612c4a8261339a565b612c5481856133b6565b9350612c6481856020860161351a565b612c6d8161370a565b840191505092915050565b6000612c838261339a565b612c8d81856133c7565b9350612c9d81856020860161351a565b80840191505092915050565b6000612cb6602b836133b6565b9150612cc182613728565b604082019050919050565b6000612cd96032836133b6565b9150612ce482613777565b604082019050919050565b6000612cfc6026836133b6565b9150612d07826137c6565b604082019050919050565b6000612d1f6025836133b6565b9150612d2a82613815565b604082019050919050565b6000612d42601c836133b6565b9150612d4d82613864565b602082019050919050565b6000612d656018836133b6565b9150612d708261388d565b602082019050919050565b6000612d886024836133b6565b9150612d93826138b6565b604082019050919050565b6000612dab6019836133b6565b9150612db682613905565b602082019050919050565b6000612dce602c836133b6565b9150612dd98261392e565b604082019050919050565b6000612df16038836133b6565b9150612dfc8261397d565b604082019050919050565b6000612e14602a836133b6565b9150612e1f826139cc565b604082019050919050565b6000612e376029836133b6565b9150612e4282613a1b565b604082019050919050565b6000612e5a6020836133b6565b9150612e6582613a6a565b602082019050919050565b6000612e7d602c836133b6565b9150612e8882613a93565b604082019050919050565b6000612ea06020836133b6565b9150612eab82613ae2565b602082019050919050565b6000612ec3602f836133b6565b9150612ece82613b0b565b604082019050919050565b6000612ee6601a836133b6565b9150612ef182613b5a565b602082019050919050565b6000612f096021836133b6565b9150612f1482613b83565b604082019050919050565b6000612f2c6031836133b6565b9150612f3782613bd2565b604082019050919050565b6000612f4f602c836133b6565b9150612f5a82613c21565b604082019050919050565b612f6e81613501565b82525050565b6000612f808284612bd1565b60148201915081905092915050565b6000612f9b8285612c78565b9150612fa78284612c78565b91508190509392505050565b6000602082019050612fc86000830184612bc2565b92915050565b6000608082019050612fe36000830187612bc2565b612ff06020830186612bc2565b612ffd6040830185612f65565b818103606083015261300f8184612c06565b905095945050505050565b600060208201905061302f6000830184612be8565b92915050565b600060208201905061304a6000830184612bf7565b92915050565b6000602082019050818103600083015261306a8184612c3f565b905092915050565b6000602082019050818103600083015261308b81612ca9565b9050919050565b600060208201905081810360008301526130ab81612ccc565b9050919050565b600060208201905081810360008301526130cb81612cef565b9050919050565b600060208201905081810360008301526130eb81612d12565b9050919050565b6000602082019050818103600083015261310b81612d35565b9050919050565b6000602082019050818103600083015261312b81612d58565b9050919050565b6000602082019050818103600083015261314b81612d7b565b9050919050565b6000602082019050818103600083015261316b81612d9e565b9050919050565b6000602082019050818103600083015261318b81612dc1565b9050919050565b600060208201905081810360008301526131ab81612de4565b9050919050565b600060208201905081810360008301526131cb81612e07565b9050919050565b600060208201905081810360008301526131eb81612e2a565b9050919050565b6000602082019050818103600083015261320b81612e4d565b9050919050565b6000602082019050818103600083015261322b81612e70565b9050919050565b6000602082019050818103600083015261324b81612e93565b9050919050565b6000602082019050818103600083015261326b81612eb6565b9050919050565b6000602082019050818103600083015261328b81612ed9565b9050919050565b600060208201905081810360008301526132ab81612efc565b9050919050565b600060208201905081810360008301526132cb81612f1f565b9050919050565b600060208201905081810360008301526132eb81612f42565b9050919050565b60006020820190506133076000830184612f65565b92915050565b6000613317613328565b9050613323828261357f565b919050565b6000604051905090565b600067ffffffffffffffff82111561334d5761334c6136db565b5b602082029050602081019050919050565b600067ffffffffffffffff821115613379576133786136db565b5b6133828261370a565b9050602081019050919050565b600081519050919050565b600081519050919050565b600082825260208201905092915050565b600082825260208201905092915050565b600081905092915050565b60006133dd82613501565b91506133e883613501565b9250827fffffffffffffffffffffffffffffffffffffffffffffffffffffffffffffffff0382111561341d5761341c61364e565b5b828201905092915050565b600061343382613501565b915061343e83613501565b92508261344e5761344d61367d565b5b828204905092915050565b600061346482613501565b915061346f83613501565b9250828210156134825761348161364e565b5b828203905092915050565b6000613498826134e1565b9050919050565b60008115159050919050565b6000819050919050565b60007fffffffff0000000000000000000000000000000000000000000000000000000082169050919050565b600073ffffffffffffffffffffffffffffffffffffffff82169050919050565b6000819050919050565b82818337600083830152505050565b60005b8381101561353857808201518184015260208101905061351d565b83811115613547576000848401525b50505050565b6000600282049050600182168061356557607f821691505b60208210811415613579576135786136ac565b5b50919050565b6135888261370a565b810181811067ffffffffffffffff821117156135a7576135a66136db565b5b80604052505050565b60006135bb82613501565b91507fffffffffffffffffffffffffffffffffffffffffffffffffffffffffffffffff8214156135ee576135ed61364e565b5b600182019050919050565b60006136048261360b565b9050919050565b60006136168261371b565b9050919050565b600061362882613501565b915061363383613501565b9250826136435761364261367d565b5b828206905092915050565b7f4e487b7100000000000000000000000000000000000000000000000000000000600052601160045260246000fd5b7f4e487b7100000000000000000000000000000000000000000000000000000000600052601260045260246000fd5b7f4e487b7100000000000000000000000000000000000000000000000000000000600052602260045260246000fd5b7f4e487b7100000000000000000000000000000000000000000000000000000000600052604160045260246000fd5b6000601f19601f8301169050919050565b60008160601b9050919050565b7f455243373231456e756d657261626c653a206f776e657220696e646578206f7560008201527f74206f6620626f756e6473000000000000000000000000000000000000000000602082015250565b7f4552433732313a207472616e7366657220746f206e6f6e20455243373231526560008201527f63656976657220696d706c656d656e7465720000000000000000000000000000602082015250565b7f4f776e61626c653a206e6577206f776e657220697320746865207a65726f206160008201527f6464726573730000000000000000000000000000000000000000000000000000602082015250565b7f4552433732313a207472616e736665722066726f6d20696e636f72726563742060008201527f6f776e6572000000000000000000000000000000000000000000000000000000602082015250565b7f4552433732313a20746f6b656e20616c7265616479206d696e74656400000000600082015250565b7f596f7520617265206e6f742077686974656c6973746564210000000000000000600082015250565b7f4552433732313a207472616e7366657220746f20746865207a65726f2061646460008201527f7265737300000000000000000000000000000000000000000000000000000000602082015250565b7f4552433732313a20617070726f766520746f2063616c6c657200000000000000600082015250565b7f4552433732313a206f70657261746f7220717565727920666f72206e6f6e657860008201527f697374656e7420746f6b656e0000000000000000000000000000000000000000602082015250565b7f4552433732313a20617070726f76652063616c6c6572206973206e6f74206f7760008201527f6e6572206e6f7220617070726f76656420666f7220616c6c0000000000000000602082015250565b7f4552433732313a2062616c616e636520717565727920666f7220746865207a6560008201527f726f206164647265737300000000000000000000000000000000000000000000602082015250565b7f4552433732313a206f776e657220717565727920666f72206e6f6e657869737460008201527f656e7420746f6b656e0000000000000000000000000000000000000000000000602082015250565b7f4552433732313a206d696e7420746f20746865207a65726f2061646472657373600082015250565b7f4552433732313a20617070726f76656420717565727920666f72206e6f6e657860008201527f697374656e7420746f6b656e0000000000000000000000000000000000000000602082015250565b7f4f776e61626c653a2063616c6c6572206973206e6f7420746865206f776e6572600082015250565b7f4552433732314d657461646174613a2055524920717565727920666f72206e6f60008201527f6e6578697374656e7420746f6b656e0000000000000000000000000000000000602082015250565b7f4d617820737570706c792073756461682074657270656e756869000000000000600082015250565b7f4552433732313a20617070726f76616c20746f2063757272656e74206f776e6560008201527f7200000000000000000000000000000000000000000000000000000000000000602082015250565b7f4552433732313a207472616e736665722063616c6c6572206973206e6f74206f60008201527f776e6572206e6f7220617070726f766564000000000000000000000000000000602082015250565b7f455243373231456e756d657261626c653a20676c6f62616c20696e646578206f60008201527f7574206f6620626f756e64730000000000000000000000000000000000000000602082015250565b613c798161348d565b8114613c8457600080fd5b50565b613c908161349f565b8114613c9b57600080fd5b50565b613ca7816134ab565b8114613cb257600080fd5b50565b613cbe816134b5565b8114613cc957600080fd5b50565b613cd581613501565b8114613ce057600080fd5b5056fea2646970667358221220df02ccc0a4271eb4f860c8dbe946433cf7e90498570026f25165a8b1970d6d7464736f6c63430008040033",
  "linkReferences": {},
  "deployedLinkReferences": {}
}